{
  "contractName": "SupplyChainContract",
  "abi": [
    {
      "inputs": [],
      "payable": false,
      "stateMutability": "nonpayable",
      "type": "constructor"
    },
    {
      "constant": true,
      "inputs": [],
      "name": "itemCounter",
      "outputs": [
        {
          "internalType": "uint256",
          "name": "",
          "type": "uint256"
        }
      ],
      "payable": false,
      "stateMutability": "view",
      "type": "function"
    },
    {
      "constant": true,
      "inputs": [
        {
          "internalType": "uint256",
          "name": "",
          "type": "uint256"
        }
      ],
      "name": "items",
      "outputs": [
        {
          "internalType": "string",
          "name": "name",
          "type": "string"
        },
        {
          "internalType": "uint256",
          "name": "trackingId",
          "type": "uint256"
        },
        {
          "internalType": "uint256",
          "name": "price",
          "type": "uint256"
        },
        {
          "internalType": "address",
          "name": "owner",
          "type": "address"
        },
        {
          "internalType": "enum SupplyChainContract.status",
          "name": "currentStatus",
          "type": "uint8"
        }
      ],
      "payable": false,
      "stateMutability": "view",
      "type": "function"
    },
    {
      "constant": false,
      "inputs": [
        {
          "internalType": "string",
          "name": "_name",
          "type": "string"
        },
        {
          "internalType": "uint256",
          "name": "_price",
          "type": "uint256"
        }
      ],
      "name": "addItem",
      "outputs": [
        {
          "components": [
            {
              "internalType": "string",
              "name": "name",
              "type": "string"
            },
            {
              "internalType": "uint256",
              "name": "trackingId",
              "type": "uint256"
            },
            {
              "internalType": "uint256",
              "name": "price",
              "type": "uint256"
            },
            {
              "internalType": "address",
              "name": "owner",
              "type": "address"
            },
            {
              "internalType": "enum SupplyChainContract.status",
              "name": "currentStatus",
              "type": "uint8"
            }
          ],
          "internalType": "struct SupplyChainContract.item",
          "name": "",
          "type": "tuple"
        }
      ],
      "payable": false,
      "stateMutability": "nonpayable",
      "type": "function"
    },
    {
      "constant": false,
      "inputs": [
        {
          "internalType": "address",
          "name": "_newOwner",
          "type": "address"
        },
        {
          "internalType": "uint256",
          "name": "_trackingId",
          "type": "uint256"
        },
        {
          "internalType": "enum SupplyChainContract.status",
          "name": "_s",
          "type": "uint8"
        }
      ],
      "name": "transferOwnership",
      "outputs": [
        {
          "components": [
            {
              "internalType": "string",
              "name": "name",
              "type": "string"
            },
            {
              "internalType": "uint256",
              "name": "trackingId",
              "type": "uint256"
            },
            {
              "internalType": "uint256",
              "name": "price",
              "type": "uint256"
            },
            {
              "internalType": "address",
              "name": "owner",
              "type": "address"
            },
            {
              "internalType": "enum SupplyChainContract.status",
              "name": "currentStatus",
              "type": "uint8"
            }
          ],
          "internalType": "struct SupplyChainContract.item",
          "name": "",
          "type": "tuple"
        }
      ],
      "payable": false,
      "stateMutability": "nonpayable",
      "type": "function"
    },
    {
      "constant": false,
      "inputs": [
        {
          "internalType": "uint256",
          "name": "_trackingId",
          "type": "uint256"
        },
        {
          "internalType": "uint256",
          "name": "_price",
          "type": "uint256"
        }
      ],
      "name": "editPrice",
      "outputs": [],
      "payable": false,
      "stateMutability": "nonpayable",
      "type": "function"
    }
  ],
  "bytecode": "0x608060405234801561001057600080fd5b50600060018190555061113d806100286000396000f3fe608060405234801561001057600080fd5b50600436106100575760003560e01c806362d6bbdf1461005c5780636d6d00ed1461008c57806376da2dc2146100aa578063bfb231d2146100da578063d0e7a5cb1461010e575b600080fd5b61007660048036036100719190810190610b3d565b61012a565b6040516100839190610f38565b60405180910390f35b61009461039b565b6040516100a19190610f5a565b60405180910390f35b6100c460048036036100bf9190810190610aee565b6103a1565b6040516100d19190610f38565b60405180910390f35b6100f460048036036100ef9190810190610b91565b6106e9565b604051610105959493929190610e5e565b60405180910390f35b61012860048036036101239190810190610bba565b6107e4565b005b610132610966565b826000806001548152602001908152602001600020600001908051906020019061015d9291906109b6565b50600180540160008060015481526020019081526020016000206001018190555033600080600154815260200190815260200160002060030160006101000a81548173ffffffffffffffffffffffffffffffffffffffff021916908373ffffffffffffffffffffffffffffffffffffffff1602179055506000806000600154815260200190815260200160002060030160146101000a81548160ff0219169083600381111561020857fe5b02179055508160008060015481526020019081526020016000206002018190555060016000815480929190600101919050555060008060015481526020019081526020016000206040518060a0016040529081600082018054600181600116156101000203166002900480601f0160208091040260200160405190810160405280929190818152602001828054600181600116156101000203166002900480156102f35780601f106102c8576101008083540402835291602001916102f3565b820191906000526020600020905b8154815290600101906020018083116102d657829003601f168201915b5050505050815260200160018201548152602001600282015481526020016003820160009054906101000a900473ffffffffffffffffffffffffffffffffffffffff1673ffffffffffffffffffffffffffffffffffffffff1673ffffffffffffffffffffffffffffffffffffffff1681526020016003820160149054906101000a900460ff16600381111561038457fe5b600381111561038f57fe5b81525050905092915050565b60015481565b6103a9610966565b838073ffffffffffffffffffffffffffffffffffffffff163373ffffffffffffffffffffffffffffffffffffffff1614610418576040517f08c379a000000000000000000000000000000000000000000000000000000000815260040161040f90610eb8565b60405180910390fd5b82600381111561042457fe5b8460008060018303815260200190815260200160002060030160149054906101000a900460ff16600381111561045657fe5b821180156104645750600482105b6104a3576040517f08c379a000000000000000000000000000000000000000000000000000000000815260040161049a90610ed8565b60405180910390fd5b8460038111156104af57fe5b60048111156104f3576040517f08c379a00000000000000000000000000000000000000000000000000000000081526004016104ea90610ef8565b60405180910390fd5b8680600190039750508760008089815260200190815260200160002060030160006101000a81548173ffffffffffffffffffffffffffffffffffffffff021916908373ffffffffffffffffffffffffffffffffffffffff1602179055508560008089815260200190815260200160002060030160146101000a81548160ff0219169083600381111561058157fe5b02179055506000808881526020019081526020016000206040518060a0016040529081600082018054600181600116156101000203166002900480601f01602080910402602001604051908101604052809291908181526020018280546001816001161561010002031660029004801561063c5780601f106106115761010080835404028352916020019161063c565b820191906000526020600020905b81548152906001019060200180831161061f57829003601f168201915b5050505050815260200160018201548152602001600282015481526020016003820160009054906101000a900473ffffffffffffffffffffffffffffffffffffffff1673ffffffffffffffffffffffffffffffffffffffff1673ffffffffffffffffffffffffffffffffffffffff1681526020016003820160149054906101000a900460ff1660038111156106cd57fe5b60038111156106d857fe5b815250509450505050509392505050565b6000602052806000526040600020600091509050806000018054600181600116156101000203166002900480601f0160208091040260200160405190810160405280929190818152602001828054600181600116156101000203166002900480156107955780601f1061076a57610100808354040283529160200191610795565b820191906000526020600020905b81548152906001019060200180831161077857829003601f168201915b5050505050908060010154908060020154908060030160009054906101000a900473ffffffffffffffffffffffffffffffffffffffff16908060030160149054906101000a900460ff16905085565b8160008060018303815260200190815260200160002060030160009054906101000a900473ffffffffffffffffffffffffffffffffffffffff1673ffffffffffffffffffffffffffffffffffffffff163373ffffffffffffffffffffffffffffffffffffffff161461088b576040517f08c379a000000000000000000000000000000000000000000000000000000000815260040161088290610f18565b60405180910390fd5b8260048111156108d0576040517f08c379a00000000000000000000000000000000000000000000000000000000081526004016108c790610ef8565b60405180910390fd5b60008085815260200190815260200160002060030160149054906101000a900460ff1660038111156108fe57fe5b6004811115610942576040517f08c379a000000000000000000000000000000000000000000000000000000000815260040161093990610ef8565b60405180910390fd5b83600080600188038152602001908152602001600020600201819055505050505050565b6040518060a00160405280606081526020016000815260200160008152602001600073ffffffffffffffffffffffffffffffffffffffff168152602001600060038111156109b057fe5b81525090565b828054600181600116156101000203166002900490600052602060002090601f016020900481019282601f106109f757805160ff1916838001178555610a25565b82800160010185558215610a25579182015b82811115610a24578251825591602001919060010190610a09565b5b509050610a329190610a36565b5090565b610a5891905b80821115610a54576000816000905550600101610a3c565b5090565b90565b600081359050610a6a816110bc565b92915050565b600081359050610a7f816110d3565b92915050565b600082601f830112610a9657600080fd5b8135610aa9610aa482610fa2565b610f75565b91508082526020830160208301858383011115610ac557600080fd5b610ad083828461105c565b50505092915050565b600081359050610ae8816110e3565b92915050565b600080600060608486031215610b0357600080fd5b6000610b1186828701610a5b565b9350506020610b2286828701610ad9565b9250506040610b3386828701610a70565b9150509250925092565b60008060408385031215610b5057600080fd5b600083013567ffffffffffffffff811115610b6a57600080fd5b610b7685828601610a85565b9250506020610b8785828601610ad9565b9150509250929050565b600060208284031215610ba357600080fd5b6000610bb184828501610ad9565b91505092915050565b60008060408385031215610bcd57600080fd5b6000610bdb85828601610ad9565b9250506020610bec85828601610ad9565b9150509250929050565b610bff81610ffb565b82525050565b610c0e81610ffb565b82525050565b610c1d8161104a565b82525050565b610c2c8161104a565b82525050565b6000610c3d82610fce565b610c478185610fd9565b9350610c5781856020860161106b565b610c608161109e565b840191505092915050565b6000610c7682610fce565b610c808185610fea565b9350610c9081856020860161106b565b610c998161109e565b840191505092915050565b6000610cb1602783610fea565b91507f4f6e6c79204e6577204f776e65722043616e20496e766f6b652054686973204660008301527f756e6374696f6e000000000000000000000000000000000000000000000000006020830152604082019050919050565b6000610d17601683610fea565b91507f5265717569726520496e76616c696420537461747573000000000000000000006000830152602082019050919050565b6000610d57601e83610fea565b91507f4974656d20697320736f6c64206f7220496e76616c69642073746174757300006000830152602082019050919050565b6000610d97601f83610fea565b91507f4f6e6c79206f776e65722063616e2063616c6c2074686973206d6574686f64006000830152602082019050919050565b600060a0830160008301518482036000860152610de78282610c32565b9150506020830151610dfc6020860182610e40565b506040830151610e0f6040860182610e40565b506060830151610e226060860182610bf6565b506080830151610e356080860182610c14565b508091505092915050565b610e4981611040565b82525050565b610e5881611040565b82525050565b600060a0820190508181036000830152610e788188610c6b565b9050610e876020830187610e4f565b610e946040830186610e4f565b610ea16060830185610c05565b610eae6080830184610c23565b9695505050505050565b60006020820190508181036000830152610ed181610ca4565b9050919050565b60006020820190508181036000830152610ef181610d0a565b9050919050565b60006020820190508181036000830152610f1181610d4a565b9050919050565b60006020820190508181036000830152610f3181610d8a565b9050919050565b60006020820190508181036000830152610f528184610dca565b905092915050565b6000602082019050610f6f6000830184610e4f565b92915050565b6000604051905081810181811067ffffffffffffffff82111715610f9857600080fd5b8060405250919050565b600067ffffffffffffffff821115610fb957600080fd5b601f19601f8301169050602081019050919050565b600081519050919050565b600082825260208201905092915050565b600082825260208201905092915050565b600061100682611020565b9050919050565b600081905061101b826110af565b919050565b600073ffffffffffffffffffffffffffffffffffffffff82169050919050565b6000819050919050565b60006110558261100d565b9050919050565b82818337600083830152505050565b60005b8381101561108957808201518184015260208101905061106e565b83811115611098576000848401525b50505050565b6000601f19601f8301169050919050565b600481106110b957fe5b50565b6110c581610ffb565b81146110d057600080fd5b50565b600481106110e057600080fd5b50565b6110ec81611040565b81146110f757600080fd5b5056fea365627a7a72315820d3fc55d85108e56bdb370c41eeca5824666b4f43de2f1e17f262b19054b32a126c6578706572696d656e74616cf564736f6c63430005100040",
  "source": "pragma solidity >= 0.4.0 < 0.7.0;\npragma experimental ABIEncoderV2;\n\ncontract SupplyChainContract{\n    \n    struct item{\n        string name;\n        uint trackingId;\n        uint price;\n        address owner;\n        status currentStatus;\n    }\n    \n    enum status {Farmer, Distributor, Retailer, Customer}\n    \n    mapping(uint => item) public items;\n    \n    uint public itemCounter;\n    \n    constructor() public{\n        itemCounter = 0;\n    }\n    \n    modifier onlyOwner(uint _trackingId){\n        require(msg.sender == items[_trackingId-1].owner, \"Only owner can call this method\");\n        _;\n    }\n    \n    modifier validStatus(uint _status, uint _trackingId){\n        require(_status > uint(items[_trackingId-1].currentStatus) && _status < 4, \"Require Invalid Status\");\n        _;\n    }\n    \n    modifier isSold(uint _status){\n        require(_status <= 4, \"Item is sold or Invalid status\");\n        _;\n    }\n\n    modifier onlyNewOwner(address _newOwner){\n        require(msg.sender == _newOwner, \"Only New Owner Can Invoke This Function\");\n        _;\n    }\n    \n    function addItem(string memory _name, uint _price) public returns(item memory){\n        \n        items[itemCounter].name = _name;\n        items[itemCounter].trackingId = itemCounter + 1;\n        items[itemCounter].owner = msg.sender;\n        items[itemCounter].currentStatus = status.Farmer;\n        items[itemCounter].price = _price;\n        itemCounter++;\n        return items[itemCounter];\n    }\n    \n    function transferOwnership(address _newOwner, uint _trackingId, status _s) public onlyNewOwner(_newOwner) validStatus(uint(_s), _trackingId) isSold(uint(_s)) returns(item memory){ \n        \n        _trackingId--;\n        items[_trackingId].owner = _newOwner;\n        items[_trackingId].currentStatus = _s;\n        \n        return items[_trackingId];\n    }\n    \n    function editPrice(uint _trackingId, uint _price) public onlyOwner(_trackingId) isSold (_trackingId) isSold(uint(items[_trackingId].currentStatus)) {\n        \n        items[_trackingId - 1].price = _price;\n    }\n    \n}",
  "sourcePath": "/home/samarth/Blockchain/Projects/Supply-Chain/contracts/SupplyChainContract.sol",
  "compiler": {
    "name": "solc",
    "version": "0.5.16+commit.9c3226ce.Emscripten.clang"
  },
  "schemaVersion": "3.0.23",
  "updatedAt": "2020-06-12T09:12:04.814Z",
  "networkType": "ethereum",
  "devdoc": {
    "methods": {}
  },
  "userdoc": {
    "methods": {}
  }
}